{
  "_format": "hh-sol-artifact-1",
  "contractName": "KeyboardNFT",
  "sourceName": "contracts/nft_erc721.sol",
  "abi": [
    {
      "inputs": [],
      "stateMutability": "nonpayable",
      "type": "constructor"
    },
    {
      "anonymous": false,
      "inputs": [
        {
          "indexed": true,
          "internalType": "address",
          "name": "owner",
          "type": "address"
        },
        {
          "indexed": true,
          "internalType": "address",
          "name": "approved",
          "type": "address"
        },
        {
          "indexed": true,
          "internalType": "uint256",
          "name": "tokenId",
          "type": "uint256"
        }
      ],
      "name": "Approval",
      "type": "event"
    },
    {
      "anonymous": false,
      "inputs": [
        {
          "indexed": true,
          "internalType": "address",
          "name": "owner",
          "type": "address"
        },
        {
          "indexed": true,
          "internalType": "address",
          "name": "operator",
          "type": "address"
        },
        {
          "indexed": false,
          "internalType": "bool",
          "name": "approved",
          "type": "bool"
        }
      ],
      "name": "ApprovalForAll",
      "type": "event"
    },
    {
      "anonymous": false,
      "inputs": [
        {
          "indexed": true,
          "internalType": "address",
          "name": "from",
          "type": "address"
        },
        {
          "indexed": true,
          "internalType": "address",
          "name": "to",
          "type": "address"
        },
        {
          "indexed": true,
          "internalType": "uint256",
          "name": "tokenId",
          "type": "uint256"
        }
      ],
      "name": "Transfer",
      "type": "event"
    },
    {
      "inputs": [
        {
          "internalType": "address",
          "name": "member",
          "type": "address"
        }
      ],
      "name": "addToWhiteList",
      "outputs": [],
      "stateMutability": "nonpayable",
      "type": "function"
    },
    {
      "inputs": [
        {
          "internalType": "address",
          "name": "to",
          "type": "address"
        },
        {
          "internalType": "uint256",
          "name": "tokenId",
          "type": "uint256"
        }
      ],
      "name": "approve",
      "outputs": [],
      "stateMutability": "nonpayable",
      "type": "function"
    },
    {
      "inputs": [
        {
          "internalType": "address",
          "name": "player",
          "type": "address"
        },
        {
          "internalType": "string",
          "name": "tokenURI",
          "type": "string"
        }
      ],
      "name": "awardItem",
      "outputs": [
        {
          "internalType": "uint256",
          "name": "",
          "type": "uint256"
        }
      ],
      "stateMutability": "nonpayable",
      "type": "function"
    },
    {
      "inputs": [
        {
          "internalType": "address",
          "name": "owner",
          "type": "address"
        }
      ],
      "name": "balanceOf",
      "outputs": [
        {
          "internalType": "uint256",
          "name": "",
          "type": "uint256"
        }
      ],
      "stateMutability": "view",
      "type": "function"
    },
    {
      "inputs": [
        {
          "internalType": "uint256",
          "name": "tokenId",
          "type": "uint256"
        }
      ],
      "name": "getApproved",
      "outputs": [
        {
          "internalType": "address",
          "name": "",
          "type": "address"
        }
      ],
      "stateMutability": "view",
      "type": "function"
    },
    {
      "inputs": [
        {
          "internalType": "address",
          "name": "owner",
          "type": "address"
        },
        {
          "internalType": "address",
          "name": "operator",
          "type": "address"
        }
      ],
      "name": "isApprovedForAll",
      "outputs": [
        {
          "internalType": "bool",
          "name": "",
          "type": "bool"
        }
      ],
      "stateMutability": "view",
      "type": "function"
    },
    {
      "inputs": [],
      "name": "name",
      "outputs": [
        {
          "internalType": "string",
          "name": "",
          "type": "string"
        }
      ],
      "stateMutability": "view",
      "type": "function"
    },
    {
      "inputs": [],
      "name": "owner",
      "outputs": [
        {
          "internalType": "address",
          "name": "",
          "type": "address"
        }
      ],
      "stateMutability": "view",
      "type": "function"
    },
    {
      "inputs": [
        {
          "internalType": "uint256",
          "name": "tokenId",
          "type": "uint256"
        }
      ],
      "name": "ownerOf",
      "outputs": [
        {
          "internalType": "address",
          "name": "",
          "type": "address"
        }
      ],
      "stateMutability": "view",
      "type": "function"
    },
    {
      "inputs": [
        {
          "internalType": "address",
          "name": "from",
          "type": "address"
        },
        {
          "internalType": "address",
          "name": "to",
          "type": "address"
        },
        {
          "internalType": "uint256",
          "name": "tokenId",
          "type": "uint256"
        }
      ],
      "name": "safeTransferFrom",
      "outputs": [],
      "stateMutability": "nonpayable",
      "type": "function"
    },
    {
      "inputs": [
        {
          "internalType": "address",
          "name": "from",
          "type": "address"
        },
        {
          "internalType": "address",
          "name": "to",
          "type": "address"
        },
        {
          "internalType": "uint256",
          "name": "tokenId",
          "type": "uint256"
        },
        {
          "internalType": "bytes",
          "name": "data",
          "type": "bytes"
        }
      ],
      "name": "safeTransferFrom",
      "outputs": [],
      "stateMutability": "nonpayable",
      "type": "function"
    },
    {
      "inputs": [
        {
          "internalType": "address",
          "name": "operator",
          "type": "address"
        },
        {
          "internalType": "bool",
          "name": "approved",
          "type": "bool"
        }
      ],
      "name": "setApprovalForAll",
      "outputs": [],
      "stateMutability": "nonpayable",
      "type": "function"
    },
    {
      "inputs": [
        {
          "internalType": "bytes4",
          "name": "interfaceId",
          "type": "bytes4"
        }
      ],
      "name": "supportsInterface",
      "outputs": [
        {
          "internalType": "bool",
          "name": "",
          "type": "bool"
        }
      ],
      "stateMutability": "view",
      "type": "function"
    },
    {
      "inputs": [],
      "name": "symbol",
      "outputs": [
        {
          "internalType": "string",
          "name": "",
          "type": "string"
        }
      ],
      "stateMutability": "view",
      "type": "function"
    },
    {
      "inputs": [
        {
          "internalType": "uint256",
          "name": "tokenId",
          "type": "uint256"
        }
      ],
      "name": "tokenURI",
      "outputs": [
        {
          "internalType": "string",
          "name": "",
          "type": "string"
        }
      ],
      "stateMutability": "view",
      "type": "function"
    },
    {
      "inputs": [
        {
          "internalType": "address",
          "name": "from",
          "type": "address"
        },
        {
          "internalType": "address",
          "name": "to",
          "type": "address"
        },
        {
          "internalType": "uint256",
          "name": "tokenId",
          "type": "uint256"
        }
      ],
      "name": "transferFrom",
      "outputs": [],
      "stateMutability": "nonpayable",
      "type": "function"
    },
    {
      "inputs": [
        {
          "internalType": "uint256",
          "name": "tokenID",
          "type": "uint256"
        },
        {
          "internalType": "string",
          "name": "tokenURI",
          "type": "string"
        }
      ],
      "name": "updateURI",
      "outputs": [],
      "stateMutability": "nonpayable",
      "type": "function"
    }
  ],
  "bytecode": "0x60806040526000600a60006101000a81548160ff0219169083151502179055503480156200002c57600080fd5b506040518060400160405280600881526020017f4b6579626f6172640000000000000000000000000000000000000000000000008152506040518060400160405280600481526020017f4b4e4654000000000000000000000000000000000000000000000000000000008152508160009080519060200190620000b192919062000114565b508060019080519060200190620000ca92919062000114565b50505033600860006101000a81548173ffffffffffffffffffffffffffffffffffffffff021916908373ffffffffffffffffffffffffffffffffffffffff16021790555062000229565b8280546200012290620001f3565b90600052602060002090601f01602090048101928262000146576000855562000192565b82601f106200016157805160ff191683800117855562000192565b8280016001018555821562000192579182015b828111156200019157825182559160200191906001019062000174565b5b509050620001a19190620001a5565b5090565b5b80821115620001c0576000816000905550600101620001a6565b5090565b7f4e487b7100000000000000000000000000000000000000000000000000000000600052602260045260246000fd5b600060028204905060018216806200020c57607f821691505b60208210811415620002235762000222620001c4565b5b50919050565b6130c380620002396000396000f3fe608060405234801561001057600080fd5b506004361061010b5760003560e01c80636352211e116100a2578063a22cb46511610071578063a22cb465146102b6578063b88d4fde146102d2578063c87b56dd146102ee578063cf3783431461031e578063e985e9c51461034e5761010b565b80636352211e1461021a57806370a082311461024a5780638da5cb5b1461027a57806395d89b41146102985761010b565b806323b872dd116100de57806323b872dd146101aa57806331d41c69146101c657806342842e0e146101e257806347ee0394146101fe5761010b565b806301ffc9a71461011057806306fdde0314610140578063081812fc1461015e578063095ea7b31461018e575b600080fd5b61012a60048036038101906101259190611d6b565b61037e565b6040516101379190611db3565b60405180910390f35b610148610460565b6040516101559190611e67565b60405180910390f35b61017860048036038101906101739190611ebf565b6104f2565b6040516101859190611f2d565b60405180910390f35b6101a860048036038101906101a39190611f74565b610538565b005b6101c460048036038101906101bf9190611fb4565b610650565b005b6101e060048036038101906101db919061206c565b6106b0565b005b6101fc60048036038101906101f79190611fb4565b610793565b005b610218600480360381019061021391906120cc565b6107b3565b005b610234600480360381019061022f9190611ebf565b6109bc565b6040516102419190611f2d565b60405180910390f35b610264600480360381019061025f91906120cc565b610a6e565b6040516102719190612108565b60405180910390f35b610282610b26565b60405161028f9190611f2d565b60405180910390f35b6102a0610b4c565b6040516102ad9190611e67565b60405180910390f35b6102d060048036038101906102cb919061214f565b610bde565b005b6102ec60048036038101906102e791906122bf565b610bf4565b005b61030860048036038101906103039190611ebf565b610c56565b6040516103159190611e67565b60405180910390f35b610338600480360381019061033391906123e3565b610d69565b6040516103459190612108565b60405180910390f35b6103686004803603810190610363919061243f565b610f0b565b6040516103759190611db3565b60405180910390f35b60007f80ac58cd000000000000000000000000000000000000000000000000000000007bffffffffffffffffffffffffffffffffffffffffffffffffffffffff1916827bffffffffffffffffffffffffffffffffffffffffffffffffffffffff1916148061044957507f5b5e139f000000000000000000000000000000000000000000000000000000007bffffffffffffffffffffffffffffffffffffffffffffffffffffffff1916827bffffffffffffffffffffffffffffffffffffffffffffffffffffffff1916145b80610459575061045882610f9f565b5b9050919050565b60606000805461046f906124ae565b80601f016020809104026020016040519081016040528092919081815260200182805461049b906124ae565b80156104e85780601f106104bd576101008083540402835291602001916104e8565b820191906000526020600020905b8154815290600101906020018083116104cb57829003601f168201915b5050505050905090565b60006104fd82611009565b6004600083815260200190815260200160002060009054906101000a900473ffffffffffffffffffffffffffffffffffffffff169050919050565b6000610543826109bc565b90508073ffffffffffffffffffffffffffffffffffffffff168373ffffffffffffffffffffffffffffffffffffffff1614156105b4576040517f08c379a00000000000000000000000000000000000000000000000000000000081526004016105ab90612552565b60405180910390fd5b8073ffffffffffffffffffffffffffffffffffffffff166105d3611054565b73ffffffffffffffffffffffffffffffffffffffff1614806106025750610601816105fc611054565b610f0b565b5b610641576040517f08c379a0000000000000000000000000000000000000000000000000000000008152600401610638906125e4565b60405180910390fd5b61064b838361105c565b505050565b61066161065b611054565b82611115565b6106a0576040517f08c379a000000000000000000000000000000000000000000000000000000000815260040161069790612676565b60405180910390fd5b6106ab8383836111aa565b505050565b3373ffffffffffffffffffffffffffffffffffffffff16600860009054906101000a900473ffffffffffffffffffffffffffffffffffffffff1673ffffffffffffffffffffffffffffffffffffffff1614610740576040517f08c379a0000000000000000000000000000000000000000000000000000000008152600401610737906126e2565b60405180910390fd5b61078e8383838080601f016020809104026020016040519081016040528093929190818152602001838380828437600081840152601f19601f82011690508083019250505050505050611411565b505050565b6107ae83838360405180602001604052806000815250610bf4565b505050565b3373ffffffffffffffffffffffffffffffffffffffff16600860009054906101000a900473ffffffffffffffffffffffffffffffffffffffff1673ffffffffffffffffffffffffffffffffffffffff1614610843576040517f08c379a000000000000000000000000000000000000000000000000000000000815260040161083a906126e2565b60405180910390fd5b600960008273ffffffffffffffffffffffffffffffffffffffff1673ffffffffffffffffffffffffffffffffffffffff16815260200190815260200160002060009054906101000a900460ff16156108d0576040517f08c379a00000000000000000000000000000000000000000000000000000000081526004016108c79061274e565b60405180910390fd5b8073ffffffffffffffffffffffffffffffffffffffff16600860009054906101000a900473ffffffffffffffffffffffffffffffffffffffff1673ffffffffffffffffffffffffffffffffffffffff161415610961576040517f08c379a0000000000000000000000000000000000000000000000000000000008152600401610958906127ba565b60405180910390fd5b6001600960008373ffffffffffffffffffffffffffffffffffffffff1673ffffffffffffffffffffffffffffffffffffffff16815260200190815260200160002060006101000a81548160ff02191690831515021790555050565b6000806002600084815260200190815260200160002060009054906101000a900473ffffffffffffffffffffffffffffffffffffffff169050600073ffffffffffffffffffffffffffffffffffffffff168173ffffffffffffffffffffffffffffffffffffffff161415610a65576040517f08c379a0000000000000000000000000000000000000000000000000000000008152600401610a5c90612826565b60405180910390fd5b80915050919050565b60008073ffffffffffffffffffffffffffffffffffffffff168273ffffffffffffffffffffffffffffffffffffffff161415610adf576040517f08c379a0000000000000000000000000000000000000000000000000000000008152600401610ad6906128b8565b60405180910390fd5b600360008373ffffffffffffffffffffffffffffffffffffffff1673ffffffffffffffffffffffffffffffffffffffff168152602001908152602001600020549050919050565b600860009054906101000a900473ffffffffffffffffffffffffffffffffffffffff1681565b606060018054610b5b906124ae565b80601f0160208091040260200160405190810160405280929190818152602001828054610b87906124ae565b8015610bd45780601f10610ba957610100808354040283529160200191610bd4565b820191906000526020600020905b815481529060010190602001808311610bb757829003601f168201915b5050505050905090565b610bf0610be9611054565b8383611485565b5050565b610c05610bff611054565b83611115565b610c44576040517f08c379a0000000000000000000000000000000000000000000000000000000008152600401610c3b90612676565b60405180910390fd5b610c50848484846115f2565b50505050565b6060610c6182611009565b6000600660008481526020019081526020016000208054610c81906124ae565b80601f0160208091040260200160405190810160405280929190818152602001828054610cad906124ae565b8015610cfa5780601f10610ccf57610100808354040283529160200191610cfa565b820191906000526020600020905b815481529060010190602001808311610cdd57829003601f168201915b505050505090506000610d0b61164e565b9050600081511415610d21578192505050610d64565b600082511115610d56578082604051602001610d3e929190612914565b60405160208183030381529060405292505050610d64565b610d5f84611665565b925050505b919050565b60003373ffffffffffffffffffffffffffffffffffffffff16600860009054906101000a900473ffffffffffffffffffffffffffffffffffffffff1673ffffffffffffffffffffffffffffffffffffffff161480610e105750600960003373ffffffffffffffffffffffffffffffffffffffff1673ffffffffffffffffffffffffffffffffffffffff16815260200190815260200160002060009054906101000a900460ff165b610e4f576040517f08c379a0000000000000000000000000000000000000000000000000000000008152600401610e46906129aa565b60405180910390fd5b600a60009054906101000a900460ff1615610e9f576040517f08c379a0000000000000000000000000000000000000000000000000000000008152600401610e9690612a3c565b60405180910390fd5b6001600a60006101000a81548160ff0219169083151502179055506000610ec660076116cd565b9050610ed284826116db565b610edc8184611411565b610ee660076118b5565b809150506000600a60006101000a81548160ff02191690831515021790555092915050565b6000600560008473ffffffffffffffffffffffffffffffffffffffff1673ffffffffffffffffffffffffffffffffffffffff16815260200190815260200160002060008373ffffffffffffffffffffffffffffffffffffffff1673ffffffffffffffffffffffffffffffffffffffff16815260200190815260200160002060009054906101000a900460ff16905092915050565b60007f01ffc9a7000000000000000000000000000000000000000000000000000000007bffffffffffffffffffffffffffffffffffffffffffffffffffffffff1916827bffffffffffffffffffffffffffffffffffffffffffffffffffffffff1916149050919050565b611012816118cb565b611051576040517f08c379a000000000000000000000000000000000000000000000000000000000815260040161104890612826565b60405180910390fd5b50565b600033905090565b816004600083815260200190815260200160002060006101000a81548173ffffffffffffffffffffffffffffffffffffffff021916908373ffffffffffffffffffffffffffffffffffffffff160217905550808273ffffffffffffffffffffffffffffffffffffffff166110cf836109bc565b73ffffffffffffffffffffffffffffffffffffffff167f8c5be1e5ebec7d5bd14f71427d1e84f3dd0314c0f7b2291e5b200ac8c7c3b92560405160405180910390a45050565b600080611121836109bc565b90508073ffffffffffffffffffffffffffffffffffffffff168473ffffffffffffffffffffffffffffffffffffffff16148061116357506111628185610f0b565b5b806111a157508373ffffffffffffffffffffffffffffffffffffffff16611189846104f2565b73ffffffffffffffffffffffffffffffffffffffff16145b91505092915050565b8273ffffffffffffffffffffffffffffffffffffffff166111ca826109bc565b73ffffffffffffffffffffffffffffffffffffffff1614611220576040517f08c379a000000000000000000000000000000000000000000000000000000000815260040161121790612ace565b60405180910390fd5b600073ffffffffffffffffffffffffffffffffffffffff168273ffffffffffffffffffffffffffffffffffffffff161415611290576040517f08c379a000000000000000000000000000000000000000000000000000000000815260040161128790612b60565b60405180910390fd5b61129b838383611937565b6112a660008261105c565b6001600360008573ffffffffffffffffffffffffffffffffffffffff1673ffffffffffffffffffffffffffffffffffffffff16815260200190815260200160002060008282546112f69190612baf565b925050819055506001600360008473ffffffffffffffffffffffffffffffffffffffff1673ffffffffffffffffffffffffffffffffffffffff168152602001908152602001600020600082825461134d9190612be3565b92505081905550816002600083815260200190815260200160002060006101000a81548173ffffffffffffffffffffffffffffffffffffffff021916908373ffffffffffffffffffffffffffffffffffffffff160217905550808273ffffffffffffffffffffffffffffffffffffffff168473ffffffffffffffffffffffffffffffffffffffff167fddf252ad1be2c89b69c2b068fc378daa952ba7f163c4a11628f55a4df523b3ef60405160405180910390a461140c83838361193c565b505050565b61141a826118cb565b611459576040517f08c379a000000000000000000000000000000000000000000000000000000000815260040161145090612cab565b60405180910390fd5b80600660008481526020019081526020016000209080519060200190611480929190611c5c565b505050565b8173ffffffffffffffffffffffffffffffffffffffff168373ffffffffffffffffffffffffffffffffffffffff1614156114f4576040517f08c379a00000000000000000000000000000000000000000000000000000000081526004016114eb90612d17565b60405180910390fd5b80600560008573ffffffffffffffffffffffffffffffffffffffff1673ffffffffffffffffffffffffffffffffffffffff16815260200190815260200160002060008473ffffffffffffffffffffffffffffffffffffffff1673ffffffffffffffffffffffffffffffffffffffff16815260200190815260200160002060006101000a81548160ff0219169083151502179055508173ffffffffffffffffffffffffffffffffffffffff168373ffffffffffffffffffffffffffffffffffffffff167f17307eab39ab6107e8899845ad3d59bd9653f200f220920489ca2b5937696c31836040516115e59190611db3565b60405180910390a3505050565b6115fd8484846111aa565b61160984848484611941565b611648576040517f08c379a000000000000000000000000000000000000000000000000000000000815260040161163f90612da9565b60405180910390fd5b50505050565b606060405180602001604052806000815250905090565b606061167082611009565b600061167a61164e565b9050600081511161169a57604051806020016040528060008152506116c5565b806116a484611ad8565b6040516020016116b5929190612914565b6040516020818303038152906040525b915050919050565b600081600001549050919050565b600073ffffffffffffffffffffffffffffffffffffffff168273ffffffffffffffffffffffffffffffffffffffff16141561174b576040517f08c379a000000000000000000000000000000000000000000000000000000000815260040161174290612e15565b60405180910390fd5b611754816118cb565b15611794576040517f08c379a000000000000000000000000000000000000000000000000000000000815260040161178b90612e81565b60405180910390fd5b6117a060008383611937565b6001600360008473ffffffffffffffffffffffffffffffffffffffff1673ffffffffffffffffffffffffffffffffffffffff16815260200190815260200160002060008282546117f09190612be3565b92505081905550816002600083815260200190815260200160002060006101000a81548173ffffffffffffffffffffffffffffffffffffffff021916908373ffffffffffffffffffffffffffffffffffffffff160217905550808273ffffffffffffffffffffffffffffffffffffffff16600073ffffffffffffffffffffffffffffffffffffffff167fddf252ad1be2c89b69c2b068fc378daa952ba7f163c4a11628f55a4df523b3ef60405160405180910390a46118b16000838361193c565b5050565b6001816000016000828254019250508190555050565b60008073ffffffffffffffffffffffffffffffffffffffff166002600084815260200190815260200160002060009054906101000a900473ffffffffffffffffffffffffffffffffffffffff1673ffffffffffffffffffffffffffffffffffffffff1614159050919050565b505050565b505050565b60006119628473ffffffffffffffffffffffffffffffffffffffff16611c39565b15611acb578373ffffffffffffffffffffffffffffffffffffffff1663150b7a0261198b611054565b8786866040518563ffffffff1660e01b81526004016119ad9493929190612ef6565b602060405180830381600087803b1580156119c757600080fd5b505af19250505080156119f857506040513d601f19601f820116820180604052508101906119f59190612f57565b60015b611a7b573d8060008114611a28576040519150601f19603f3d011682016040523d82523d6000602084013e611a2d565b606091505b50600081511415611a73576040517f08c379a0000000000000000000000000000000000000000000000000000000008152600401611a6a90612da9565b60405180910390fd5b805181602001fd5b63150b7a0260e01b7bffffffffffffffffffffffffffffffffffffffffffffffffffffffff1916817bffffffffffffffffffffffffffffffffffffffffffffffffffffffff191614915050611ad0565b600190505b949350505050565b60606000821415611b20576040518060400160405280600181526020017f30000000000000000000000000000000000000000000000000000000000000008152509050611c34565b600082905060005b60008214611b52578080611b3b90612f84565b915050600a82611b4b9190612ffc565b9150611b28565b60008167ffffffffffffffff811115611b6e57611b6d612194565b5b6040519080825280601f01601f191660200182016040528015611ba05781602001600182028036833780820191505090505b5090505b60008514611c2d57600182611bb99190612baf565b9150600a85611bc8919061302d565b6030611bd49190612be3565b60f81b818381518110611bea57611be961305e565b5b60200101907effffffffffffffffffffffffffffffffffffffffffffffffffffffffffffff1916908160001a905350600a85611c269190612ffc565b9450611ba4565b8093505050505b919050565b6000808273ffffffffffffffffffffffffffffffffffffffff163b119050919050565b828054611c68906124ae565b90600052602060002090601f016020900481019282611c8a5760008555611cd1565b82601f10611ca357805160ff1916838001178555611cd1565b82800160010185558215611cd1579182015b82811115611cd0578251825591602001919060010190611cb5565b5b509050611cde9190611ce2565b5090565b5b80821115611cfb576000816000905550600101611ce3565b5090565b6000604051905090565b600080fd5b600080fd5b60007fffffffff0000000000000000000000000000000000000000000000000000000082169050919050565b611d4881611d13565b8114611d5357600080fd5b50565b600081359050611d6581611d3f565b92915050565b600060208284031215611d8157611d80611d09565b5b6000611d8f84828501611d56565b91505092915050565b60008115159050919050565b611dad81611d98565b82525050565b6000602082019050611dc86000830184611da4565b92915050565b600081519050919050565b600082825260208201905092915050565b60005b83811015611e08578082015181840152602081019050611ded565b83811115611e17576000848401525b50505050565b6000601f19601f8301169050919050565b6000611e3982611dce565b611e438185611dd9565b9350611e53818560208601611dea565b611e5c81611e1d565b840191505092915050565b60006020820190508181036000830152611e818184611e2e565b905092915050565b6000819050919050565b611e9c81611e89565b8114611ea757600080fd5b50565b600081359050611eb981611e93565b92915050565b600060208284031215611ed557611ed4611d09565b5b6000611ee384828501611eaa565b91505092915050565b600073ffffffffffffffffffffffffffffffffffffffff82169050919050565b6000611f1782611eec565b9050919050565b611f2781611f0c565b82525050565b6000602082019050611f426000830184611f1e565b92915050565b611f5181611f0c565b8114611f5c57600080fd5b50565b600081359050611f6e81611f48565b92915050565b60008060408385031215611f8b57611f8a611d09565b5b6000611f9985828601611f5f565b9250506020611faa85828601611eaa565b9150509250929050565b600080600060608486031215611fcd57611fcc611d09565b5b6000611fdb86828701611f5f565b9350506020611fec86828701611f5f565b9250506040611ffd86828701611eaa565b9150509250925092565b600080fd5b600080fd5b600080fd5b60008083601f84011261202c5761202b612007565b5b8235905067ffffffffffffffff8111156120495761204861200c565b5b60208301915083600182028301111561206557612064612011565b5b9250929050565b60008060006040848603121561208557612084611d09565b5b600061209386828701611eaa565b935050602084013567ffffffffffffffff8111156120b4576120b3611d0e565b5b6120c086828701612016565b92509250509250925092565b6000602082840312156120e2576120e1611d09565b5b60006120f084828501611f5f565b91505092915050565b61210281611e89565b82525050565b600060208201905061211d60008301846120f9565b92915050565b61212c81611d98565b811461213757600080fd5b50565b60008135905061214981612123565b92915050565b6000806040838503121561216657612165611d09565b5b600061217485828601611f5f565b92505060206121858582860161213a565b9150509250929050565b600080fd5b7f4e487b7100000000000000000000000000000000000000000000000000000000600052604160045260246000fd5b6121cc82611e1d565b810181811067ffffffffffffffff821117156121eb576121ea612194565b5b80604052505050565b60006121fe611cff565b905061220a82826121c3565b919050565b600067ffffffffffffffff82111561222a57612229612194565b5b61223382611e1d565b9050602081019050919050565b82818337600083830152505050565b600061226261225d8461220f565b6121f4565b90508281526020810184848401111561227e5761227d61218f565b5b612289848285612240565b509392505050565b600082601f8301126122a6576122a5612007565b5b81356122b684826020860161224f565b91505092915050565b600080600080608085870312156122d9576122d8611d09565b5b60006122e787828801611f5f565b94505060206122f887828801611f5f565b935050604061230987828801611eaa565b925050606085013567ffffffffffffffff81111561232a57612329611d0e565b5b61233687828801612291565b91505092959194509250565b600067ffffffffffffffff82111561235d5761235c612194565b5b61236682611e1d565b9050602081019050919050565b600061238661238184612342565b6121f4565b9050828152602081018484840111156123a2576123a161218f565b5b6123ad848285612240565b509392505050565b600082601f8301126123ca576123c9612007565b5b81356123da848260208601612373565b91505092915050565b600080604083850312156123fa576123f9611d09565b5b600061240885828601611f5f565b925050602083013567ffffffffffffffff81111561242957612428611d0e565b5b612435858286016123b5565b9150509250929050565b6000806040838503121561245657612455611d09565b5b600061246485828601611f5f565b925050602061247585828601611f5f565b9150509250929050565b7f4e487b7100000000000000000000000000000000000000000000000000000000600052602260045260246000fd5b600060028204905060018216806124c657607f821691505b602082108114156124da576124d961247f565b5b50919050565b7f4552433732313a20617070726f76616c20746f2063757272656e74206f776e6560008201527f7200000000000000000000000000000000000000000000000000000000000000602082015250565b600061253c602183611dd9565b9150612547826124e0565b604082019050919050565b6000602082019050818103600083015261256b8161252f565b9050919050565b7f4552433732313a20617070726f76652063616c6c6572206973206e6f7420746f60008201527f6b656e206f776e6572206e6f7220617070726f76656420666f7220616c6c0000602082015250565b60006125ce603e83611dd9565b91506125d982612572565b604082019050919050565b600060208201905081810360008301526125fd816125c1565b9050919050565b7f4552433732313a2063616c6c6572206973206e6f7420746f6b656e206f776e6560008201527f72206e6f7220617070726f766564000000000000000000000000000000000000602082015250565b6000612660602e83611dd9565b915061266b82612604565b604082019050919050565b6000602082019050818103600083015261268f81612653565b9050919050565b7f6f6e6c79206f6e7765722063616e206d696e7400000000000000000000000000600082015250565b60006126cc601383611dd9565b91506126d782612696565b602082019050919050565b600060208201905081810360008301526126fb816126bf565b9050919050565b7f6d656d65627220616c7265616479206578697374000000000000000000000000600082015250565b6000612738601483611dd9565b915061274382612702565b602082019050919050565b600060208201905081810360008301526127678161272b565b9050919050565b7f4f776e65722063616e6e6f7420626520776869746c6973746564000000000000600082015250565b60006127a4601a83611dd9565b91506127af8261276e565b602082019050919050565b600060208201905081810360008301526127d381612797565b9050919050565b7f4552433732313a20696e76616c696420746f6b656e2049440000000000000000600082015250565b6000612810601883611dd9565b915061281b826127da565b602082019050919050565b6000602082019050818103600083015261283f81612803565b9050919050565b7f4552433732313a2061646472657373207a65726f206973206e6f74206120766160008201527f6c6964206f776e65720000000000000000000000000000000000000000000000602082015250565b60006128a2602983611dd9565b91506128ad82612846565b604082019050919050565b600060208201905081810360008301526128d181612895565b9050919050565b600081905092915050565b60006128ee82611dce565b6128f881856128d8565b9350612908818560208601611dea565b80840191505092915050565b600061292082856128e3565b915061292c82846128e3565b91508190509392505050565b7f4f6e6c79206f776e6572206f722077686974654c6973746564206d656d62657260008201527f7320616c6c6f7765640000000000000000000000000000000000000000000000602082015250565b6000612994602983611dd9565b915061299f82612938565b604082019050919050565b600060208201905081810360008301526129c381612987565b9050919050565b7f66756e6374696f6e73206172652061206269742062757379207472792061676160008201527f696e20696e206120666577000000000000000000000000000000000000000000602082015250565b6000612a26602b83611dd9565b9150612a31826129ca565b604082019050919050565b60006020820190508181036000830152612a5581612a19565b9050919050565b7f4552433732313a207472616e736665722066726f6d20696e636f72726563742060008201527f6f776e6572000000000000000000000000000000000000000000000000000000602082015250565b6000612ab8602583611dd9565b9150612ac382612a5c565b604082019050919050565b60006020820190508181036000830152612ae781612aab565b9050919050565b7f4552433732313a207472616e7366657220746f20746865207a65726f2061646460008201527f7265737300000000000000000000000000000000000000000000000000000000602082015250565b6000612b4a602483611dd9565b9150612b5582612aee565b604082019050919050565b60006020820190508181036000830152612b7981612b3d565b9050919050565b7f4e487b7100000000000000000000000000000000000000000000000000000000600052601160045260246000fd5b6000612bba82611e89565b9150612bc583611e89565b925082821015612bd857612bd7612b80565b5b828203905092915050565b6000612bee82611e89565b9150612bf983611e89565b9250827fffffffffffffffffffffffffffffffffffffffffffffffffffffffffffffffff03821115612c2e57612c2d612b80565b5b828201905092915050565b7f45524337323155524953746f726167653a2055524920736574206f66206e6f6e60008201527f6578697374656e7420746f6b656e000000000000000000000000000000000000602082015250565b6000612c95602e83611dd9565b9150612ca082612c39565b604082019050919050565b60006020820190508181036000830152612cc481612c88565b9050919050565b7f4552433732313a20617070726f766520746f2063616c6c657200000000000000600082015250565b6000612d01601983611dd9565b9150612d0c82612ccb565b602082019050919050565b60006020820190508181036000830152612d3081612cf4565b9050919050565b7f4552433732313a207472616e7366657220746f206e6f6e20455243373231526560008201527f63656976657220696d706c656d656e7465720000000000000000000000000000602082015250565b6000612d93603283611dd9565b9150612d9e82612d37565b604082019050919050565b60006020820190508181036000830152612dc281612d86565b9050919050565b7f4552433732313a206d696e7420746f20746865207a65726f2061646472657373600082015250565b6000612dff602083611dd9565b9150612e0a82612dc9565b602082019050919050565b60006020820190508181036000830152612e2e81612df2565b9050919050565b7f4552433732313a20746f6b656e20616c7265616479206d696e74656400000000600082015250565b6000612e6b601c83611dd9565b9150612e7682612e35565b602082019050919050565b60006020820190508181036000830152612e9a81612e5e565b9050919050565b600081519050919050565b600082825260208201905092915050565b6000612ec882612ea1565b612ed28185612eac565b9350612ee2818560208601611dea565b612eeb81611e1d565b840191505092915050565b6000608082019050612f0b6000830187611f1e565b612f186020830186611f1e565b612f2560408301856120f9565b8181036060830152612f378184612ebd565b905095945050505050565b600081519050612f5181611d3f565b92915050565b600060208284031215612f6d57612f6c611d09565b5b6000612f7b84828501612f42565b91505092915050565b6000612f8f82611e89565b91507fffffffffffffffffffffffffffffffffffffffffffffffffffffffffffffffff821415612fc257612fc1612b80565b5b600182019050919050565b7f4e487b7100000000000000000000000000000000000000000000000000000000600052601260045260246000fd5b600061300782611e89565b915061301283611e89565b92508261302257613021612fcd565b5b828204905092915050565b600061303882611e89565b915061304383611e89565b92508261305357613052612fcd565b5b828206905092915050565b7f4e487b7100000000000000000000000000000000000000000000000000000000600052603260045260246000fdfea26469706673582212202d69af4d4a2b0df5300b5cc38c251e95c03be565cbbcdce35bcf713b82e0a68464736f6c63430008090033",
  "linkReferences": {},
  "deployedLinkReferences": {}
}